{
  "contractName": "Election",
  "abi": [
    {
      "inputs": [],
      "payable": false,
      "stateMutability": "nonpayable",
      "type": "constructor"
    },
    {
      "anonymous": false,
      "inputs": [
        {
          "indexed": true,
          "internalType": "uint256",
          "name": "_candidateId",
          "type": "uint256"
        }
      ],
      "name": "votedEvent",
      "type": "event"
    },
    {
      "constant": true,
      "inputs": [
        {
          "internalType": "uint256",
          "name": "",
          "type": "uint256"
        }
      ],
      "name": "candidates",
      "outputs": [
        {
          "internalType": "uint256",
          "name": "id",
          "type": "uint256"
        },
        {
          "internalType": "string",
          "name": "name",
          "type": "string"
        },
        {
          "internalType": "uint256",
          "name": "voteCount",
          "type": "uint256"
        },
        {
          "internalType": "string",
          "name": "content",
          "type": "string"
        },
        {
          "internalType": "address",
          "name": "add",
          "type": "address"
        }
      ],
      "payable": false,
      "stateMutability": "view",
      "type": "function"
    },
    {
      "constant": true,
      "inputs": [],
      "name": "candidatesCount",
      "outputs": [
        {
          "internalType": "uint256",
          "name": "",
          "type": "uint256"
        }
      ],
      "payable": false,
      "stateMutability": "view",
      "type": "function"
    },
    {
      "constant": true,
      "inputs": [
        {
          "internalType": "uint256",
          "name": "",
          "type": "uint256"
        }
      ],
      "name": "records",
      "outputs": [
        {
          "internalType": "uint256",
          "name": "candidate",
          "type": "uint256"
        },
        {
          "internalType": "uint256",
          "name": "count",
          "type": "uint256"
        }
      ],
      "payable": false,
      "stateMutability": "view",
      "type": "function"
    },
    {
      "constant": true,
      "inputs": [
        {
          "internalType": "address",
          "name": "",
          "type": "address"
        }
      ],
      "name": "validVoters",
      "outputs": [
        {
          "internalType": "bool",
          "name": "",
          "type": "bool"
        }
      ],
      "payable": false,
      "stateMutability": "view",
      "type": "function"
    },
    {
      "constant": true,
      "inputs": [],
      "name": "validVotersCount",
      "outputs": [
        {
          "internalType": "uint256",
          "name": "",
          "type": "uint256"
        }
      ],
      "payable": false,
      "stateMutability": "view",
      "type": "function"
    },
    {
      "constant": true,
      "inputs": [
        {
          "internalType": "address",
          "name": "",
          "type": "address"
        }
      ],
      "name": "voters",
      "outputs": [
        {
          "internalType": "address",
          "name": "add",
          "type": "address"
        },
        {
          "internalType": "bool",
          "name": "hasVoted",
          "type": "bool"
        },
        {
          "internalType": "uint256",
          "name": "candidateId",
          "type": "uint256"
        }
      ],
      "payable": false,
      "stateMutability": "view",
      "type": "function"
    },
    {
      "constant": false,
      "inputs": [
        {
          "internalType": "address",
          "name": "add",
          "type": "address"
        }
      ],
      "name": "buildVoter",
      "outputs": [],
      "payable": false,
      "stateMutability": "nonpayable",
      "type": "function"
    },
    {
      "constant": false,
      "inputs": [
        {
          "internalType": "uint256",
          "name": "_candidateId",
          "type": "uint256"
        }
      ],
      "name": "vote",
      "outputs": [],
      "payable": false,
      "stateMutability": "nonpayable",
      "type": "function"
    },
    {
      "constant": false,
      "inputs": [],
      "name": "tally",
      "outputs": [],
      "payable": false,
      "stateMutability": "nonpayable",
      "type": "function"
    },
    {
      "constant": true,
      "inputs": [
        {
          "internalType": "uint256",
          "name": "candidateId",
          "type": "uint256"
        }
      ],
      "name": "getCandidateNumVotes",
      "outputs": [
        {
          "internalType": "uint256",
          "name": "",
          "type": "uint256"
        }
      ],
      "payable": false,
      "stateMutability": "view",
      "type": "function"
    },
    {
      "constant": true,
      "inputs": [
        {
          "internalType": "uint256",
          "name": "candidateId",
          "type": "uint256"
        },
        {
          "internalType": "uint256",
          "name": "index",
          "type": "uint256"
        }
      ],
      "name": "queryVotes",
      "outputs": [
        {
          "internalType": "address",
          "name": "",
          "type": "address"
        }
      ],
      "payable": false,
      "stateMutability": "view",
      "type": "function"
    }
  ],
  "bytecode": "0x60806040523480156200001157600080fd5b506200008e6040518060400160405280600681526020017f63616e64203100000000000000000000000000000000000000000000000000008152506040518060400160405280601881526020017f492063616e206265207468652062657374206d61796f722100000000000000008152506200012060201b60201c565b6200010a6040518060400160405280600681526020017f63616e64203200000000000000000000000000000000000000000000000000008152506040518060400160405280601481526020017f48652773207765616b2c207472757374206d65210000000000000000000000008152506200012060201b60201c565b6200011a6200022c60201b60201c565b620003c1565b60046000815480929190600101919050555060003090506040518060a001604052806004548152602001848152602001600081526020018381526020018273ffffffffffffffffffffffffffffffffffffffff168152506000806004548152602001908152602001600020600082015181600001556020820151816001019080519060200190620001b392919062000312565b50604082015181600201556060820151816003019080519060200190620001dc92919062000312565b5060808201518160040160006101000a81548173ffffffffffffffffffffffffffffffffffffffff021916908373ffffffffffffffffffffffffffffffffffffffff160217905550905050505050565b6000736ae87b602153f81fa71c66096a03123b694ac0e490506001600260008373ffffffffffffffffffffffffffffffffffffffff1673ffffffffffffffffffffffffffffffffffffffff16815260200190815260200160002060006101000a81548160ff021916908315150217905550600073ef030ce53211c33462af5e28ec4eb9782f22ba4190506001600260008373ffffffffffffffffffffffffffffffffffffffff1673ffffffffffffffffffffffffffffffffffffffff16815260200190815260200160002060006101000a81548160ff0219169083151502179055505050565b828054600181600116156101000203166002900490600052602060002090601f016020900481019282601f106200035557805160ff191683800117855562000386565b8280016001018555821562000386579182015b828111156200038557825182559160200191906001019062000368565b5b50905062000395919062000399565b5090565b620003be91905b80821115620003ba576000816000905550600101620003a0565b5090565b90565b610e8b80620003d16000396000f3fe608060405234801561001057600080fd5b50600436106100a95760003560e01c80633b7cc50d116100715780633b7cc50d146102f3578063410673e5146103375780634324970b146103415780636d55f8fd1461035f578063a3ec138d146103a1578063b3ce331e14610437576100a9565b80630121b93f146100ae57806311e28860146100dc5780632d35a8a21461013857806334461067146101565780633477ee2e1461019f575b600080fd5b6100da600480360360208110156100c457600080fd5b81019080803590602001909291905050506104af565b005b61011e600480360360208110156100f257600080fd5b81019080803573ffffffffffffffffffffffffffffffffffffffff16906020019092919050505061085d565b604051808215151515815260200191505060405180910390f35b61014061087d565b6040518082815260200191505060405180910390f35b6101826004803603602081101561016c57600080fd5b8101908080359060200190929190505050610883565b604051808381526020018281526020019250505060405180910390f35b6101cb600480360360208110156101b557600080fd5b81019080803590602001909291905050506108a7565b6040518086815260200180602001858152602001806020018473ffffffffffffffffffffffffffffffffffffffff1673ffffffffffffffffffffffffffffffffffffffff168152602001838103835287818151815260200191508051906020019080838360005b8381101561024d578082015181840152602081019050610232565b50505050905090810190601f16801561027a5780820380516001836020036101000a031916815260200191505b50838103825285818151815260200191508051906020019080838360005b838110156102b3578082015181840152602081019050610298565b50505050905090810190601f1680156102e05780820380516001836020036101000a031916815260200191505b5097505050505050505060405180910390f35b6103356004803603602081101561030957600080fd5b81019080803573ffffffffffffffffffffffffffffffffffffffff169060200190929190505050610a2d565b005b61033f610bb2565b005b610349610d83565b6040518082815260200191505060405180910390f35b61038b6004803603602081101561037557600080fd5b8101908080359060200190929190505050610d89565b6040518082815260200191505060405180910390f35b6103e3600480360360208110156103b757600080fd5b81019080803573ffffffffffffffffffffffffffffffffffffffff169060200190929190505050610da9565b604051808473ffffffffffffffffffffffffffffffffffffffff1673ffffffffffffffffffffffffffffffffffffffff16815260200183151515158152602001828152602001935050505060405180910390f35b61046d6004803603604081101561044d57600080fd5b810190808035906020019092919080359060200190929190505050610e00565b604051808273ffffffffffffffffffffffffffffffffffffffff1673ffffffffffffffffffffffffffffffffffffffff16815260200191505060405180910390f35b6000339050600160008273ffffffffffffffffffffffffffffffffffffffff1673ffffffffffffffffffffffffffffffffffffffff16815260200190815260200160002060000160149054906101000a900460ff1615610577576040517f08c379a000000000000000000000000000000000000000000000000000000000815260040180806020018281038252600e8152602001807f796f75206861766520766f74656400000000000000000000000000000000000081525060200191505060405180910390fd5b600260008273ffffffffffffffffffffffffffffffffffffffff1673ffffffffffffffffffffffffffffffffffffffff16815260200190815260200160002060009054906101000a900460ff16610636576040517f08c379a000000000000000000000000000000000000000000000000000000000815260040180806020018281038252600f8152602001807f6e6f742076616c696420766f746572000000000000000000000000000000000081525060200191505060405180910390fd5b60008211801561064857506004548211155b6106ba576040517f08c379a00000000000000000000000000000000000000000000000000000000081526004018080602001828103825260118152602001807f696e76616c69642063616e64696461746500000000000000000000000000000081525060200191505060405180910390fd5b6000808381526020019081526020016000206002016000815480929190600101919050555060018060008373ffffffffffffffffffffffffffffffffffffffff1673ffffffffffffffffffffffffffffffffffffffff16815260200190815260200160002060000160146101000a81548160ff02191690831515021790555081600160008373ffffffffffffffffffffffffffffffffffffffff1673ffffffffffffffffffffffffffffffffffffffff16815260200190815260200160002060010181905550600660405180604001604052808373ffffffffffffffffffffffffffffffffffffffff168152602001848152509080600181540180825580915050906001820390600052602060002090600202016000909192909190915060008201518160000160006101000a81548173ffffffffffffffffffffffffffffffffffffffff021916908373ffffffffffffffffffffffffffffffffffffffff16021790555060208201518160010155505050817ffff3c900d938d21d0990d786e819f29b8d05c1ef587b462b939609625b684b1660405160405180910390a25050565b60026020528060005260406000206000915054906101000a900460ff1681565b60045481565b60036020528060005260406000206000915090508060000154908060020154905082565b6000602052806000526040600020600091509050806000015490806001018054600181600116156101000203166002900480601f0160208091040260200160405190810160405280929190818152602001828054600181600116156101000203166002900480156109595780601f1061092e57610100808354040283529160200191610959565b820191906000526020600020905b81548152906001019060200180831161093c57829003601f168201915b505050505090806002015490806003018054600181600116156101000203166002900480601f0160208091040260200160405190810160405280929190818152602001828054600181600116156101000203166002900480156109fd5780601f106109d2576101008083540402835291602001916109fd565b820191906000526020600020905b8154815290600101906020018083116109e057829003601f168201915b5050505050908060040160009054906101000a900473ffffffffffffffffffffffffffffffffffffffff16905085565b600073ffffffffffffffffffffffffffffffffffffffff16600160008373ffffffffffffffffffffffffffffffffffffffff1673ffffffffffffffffffffffffffffffffffffffff16815260200190815260200160002060000160009054906101000a900473ffffffffffffffffffffffffffffffffffffffff1673ffffffffffffffffffffffffffffffffffffffff161415610baf5760405180606001604052808273ffffffffffffffffffffffffffffffffffffffff168152602001600015158152602001620186a0815250600160008373ffffffffffffffffffffffffffffffffffffffff1673ffffffffffffffffffffffffffffffffffffffff16815260200190815260200160002060008201518160000160006101000a81548173ffffffffffffffffffffffffffffffffffffffff021916908373ffffffffffffffffffffffffffffffffffffffff16021790555060208201518160000160146101000a81548160ff021916908315150217905550604082015181600101559050505b50565b60008090505b600680549050811015610d80576002600060068381548110610bd657fe5b906000526020600020906002020160000160009054906101000a900473ffffffffffffffffffffffffffffffffffffffff1673ffffffffffffffffffffffffffffffffffffffff1673ffffffffffffffffffffffffffffffffffffffff16815260200190815260200160002060009054906101000a900460ff16610c5957610d73565b60016003600060068481548110610c6c57fe5b9060005260206000209060020201600101548152602001908152602001600020600201600082825401925050819055506003600060068381548110610cad57fe5b906000526020600020906002020160010154815260200190815260200160002060010160068281548110610cdd57fe5b906000526020600020906002020160000160009054906101000a900473ffffffffffffffffffffffffffffffffffffffff1690806001815401808255809150509060018203906000526020600020016000909192909190916101000a81548173ffffffffffffffffffffffffffffffffffffffff021916908373ffffffffffffffffffffffffffffffffffffffff160217905550505b8080600101915050610bb8565b50565b60055481565b600060036000838152602001908152602001600020600201549050919050565b60016020528060005260406000206000915090508060000160009054906101000a900473ffffffffffffffffffffffffffffffffffffffff16908060000160149054906101000a900460ff16908060010154905083565b6000600360008481526020019081526020016000206001018281548110610e2357fe5b9060005260206000200160009054906101000a900473ffffffffffffffffffffffffffffffffffffffff1690509291505056fea265627a7a72315820200f430f39b847d9159b370548f42e4840b2ac4f4da0da850ddfee14ff278b5064736f6c63430005100032",
  "source": "pragma solidity ^0.5.16;\r\n\r\ncontract Election{\r\n    // store the candidates\r\n    // provide reading and writing\r\n\r\n    // model a candidate\r\n    struct Candidate {\r\n        // unsigned integer\r\n        uint id;\r\n        string name;\r\n        uint voteCount;\r\n        string content;\r\n        address add;\r\n    }\r\n\r\n    struct Voter {\r\n        address add;\r\n        bool hasVoted;\r\n        uint candidateId;\r\n    }\r\n\r\n    struct Vote {\r\n        address voter;\r\n        uint candidateId;\r\n    }\r\n\r\n    struct Record {\r\n        uint candidate;\r\n        address[] voters;\r\n        uint count;\r\n    }\r\n\r\n    // key => value to store the candidates\r\n    mapping (uint => Candidate) public candidates;\r\n\r\n    // Store accounts that have voted\r\n    mapping (address => Voter) public voters;\r\n    mapping (address => bool) public validVoters;\r\n\r\n    mapping (uint => Record) public records;\r\n\r\n    // to count the number, since mapping has no function of counting\r\n    // brutely\r\n    uint public candidatesCount;\r\n    uint public validVotersCount;\r\n\r\n    Vote[] votes;\r\n    // Record[] public result;\r\n\r\n    // constraint the range of candidates\r\n    constructor() public {\r\n        addCandidate(\"cand 1\", \"I can be the best mayor!\");\r\n        addCandidate(\"cand 2\", \"He's weak, trust me!\");\r\n\r\n        buildValidVoters();\r\n        // validVoters.push(\"0x6Ae87b602153F81FA71c66096a03123b694Ac0e4\");\r\n    }\r\n\r\n    function buildValidVoters() private {\r\n        address a1 = address(0x6Ae87b602153F81FA71c66096a03123b694Ac0e4);\r\n        validVoters[a1] = true;\r\n        address a2 = address(0xEF030ce53211c33462af5e28Ec4eb9782F22bA41);\r\n        validVoters[a2] = true;\r\n        // validVoters[validVotersCount++] = \"0x6Ae87b602153F81FA71c66096a03123b694Ac0e4\";\r\n    }\r\n\r\n    function buildVoter(address add) public {\r\n        if(voters[add].add == address(0)) voters[add] = Voter(add, false, 100000);\r\n    }\r\n\r\n    // here memory is mandatory to tell the location of the parameter\r\n    function addCandidate(string memory _name, string memory _content) private {\r\n        candidatesCount++;\r\n        address add = address(this);\r\n        candidates[candidatesCount] = Candidate(candidatesCount, _name, 0, _content, add);\r\n    }\r\n\r\n    // voted event\r\n    event votedEvent (\r\n        uint indexed _candidateId\r\n    );\r\n\r\n    function vote (uint _candidateId) public {\r\n        address voter = msg.sender;\r\n        // check if the voter has voted\r\n        require(!voters[voter].hasVoted, \"you have voted\");\r\n        require(validVoters[voter], \"not valid voter\");\r\n\r\n        // // check if the candidate is valid\r\n        require(_candidateId > 0 && _candidateId <= candidatesCount, \"invalid candidate\");\r\n\r\n        // vote for a candidate and update its count\r\n        candidates[_candidateId].voteCount ++;\r\n\r\n        // record the voter has votes\r\n        // how to know who's voter??? why should we know?\r\n        // however this is the voter\r\n        voters[voter].hasVoted = true;\r\n        voters[voter].candidateId = _candidateId;\r\n\r\n        votes.push(Vote(voter, _candidateId));\r\n\r\n        // trigger voted event\r\n        emit votedEvent(_candidateId);\r\n    }\r\n\r\n    function tally() public {\r\n        for(uint i = 0; i < votes.length; i++) {\r\n            if(!validVoters[votes[i].voter]) continue;\r\n            records[votes[i].candidateId].count += 1;\r\n            records[votes[i].candidateId].voters.push(votes[i].voter);\r\n        }\r\n\r\n    }\r\n\r\n    /* a very detoured way\r\n     * solidity doesn't support returning an array of struct\r\n     * so this is a very brute way to return all the valid votes:\r\n     * we give a getter of how many votes each candidate gather,\r\n     * then we return to tally server one by one.\r\n    */\r\n    function getCandidateNumVotes(uint candidateId) public view returns (uint) {\r\n        return records[candidateId].count;\r\n    }\r\n\r\n    function queryVotes(uint candidateId, uint index) public view returns (address) {\r\n        return records[candidateId].voters[index];\r\n    }\r\n}",
  "sourcePath": "D:\\NodePrograms\\e-voting\\contracts\\Election.sol",
  "compiler": {
    "name": "solc",
    "version": "0.5.16+commit.9c3226ce.Emscripten.clang"
  },
  "schemaVersion": "3.0.23",
  "updatedAt": "2020-04-08T01:05:47.337Z",
  "networkType": "ethereum",
  "devdoc": {
    "methods": {}
  },
  "userdoc": {
    "methods": {}
  }
}