{
  "contractName": "Election",
  "abi": [
    {
      "inputs": [],
      "payable": false,
      "stateMutability": "nonpayable",
      "type": "constructor"
    },
    {
      "anonymous": false,
      "inputs": [
        {
          "indexed": true,
          "internalType": "uint256",
          "name": "_candidateId",
          "type": "uint256"
        }
      ],
      "name": "votedEvent",
      "type": "event"
    },
    {
      "constant": true,
      "inputs": [
        {
          "internalType": "uint256",
          "name": "",
          "type": "uint256"
        }
      ],
      "name": "candidates",
      "outputs": [
        {
          "internalType": "uint256",
          "name": "id",
          "type": "uint256"
        },
        {
          "internalType": "string",
          "name": "name",
          "type": "string"
        },
        {
          "internalType": "uint256",
          "name": "voteCount",
          "type": "uint256"
        },
        {
          "internalType": "string",
          "name": "content",
          "type": "string"
        },
        {
          "internalType": "address",
          "name": "add",
          "type": "address"
        }
      ],
      "payable": false,
      "stateMutability": "view",
      "type": "function"
    },
    {
      "constant": true,
      "inputs": [],
      "name": "candidatesCount",
      "outputs": [
        {
          "internalType": "uint256",
          "name": "",
          "type": "uint256"
        }
      ],
      "payable": false,
      "stateMutability": "view",
      "type": "function"
    },
    {
      "constant": true,
      "inputs": [
        {
          "internalType": "uint256",
          "name": "",
          "type": "uint256"
        }
      ],
      "name": "records",
      "outputs": [
        {
          "internalType": "uint256",
          "name": "candidate",
          "type": "uint256"
        },
        {
          "internalType": "uint256",
          "name": "count",
          "type": "uint256"
        }
      ],
      "payable": false,
      "stateMutability": "view",
      "type": "function"
    },
    {
      "constant": true,
      "inputs": [
        {
          "internalType": "address",
          "name": "",
          "type": "address"
        }
      ],
      "name": "validVoters",
      "outputs": [
        {
          "internalType": "bool",
          "name": "",
          "type": "bool"
        }
      ],
      "payable": false,
      "stateMutability": "view",
      "type": "function"
    },
    {
      "constant": true,
      "inputs": [],
      "name": "validVotersCount",
      "outputs": [
        {
          "internalType": "uint256",
          "name": "",
          "type": "uint256"
        }
      ],
      "payable": false,
      "stateMutability": "view",
      "type": "function"
    },
    {
      "constant": true,
      "inputs": [
        {
          "internalType": "address",
          "name": "",
          "type": "address"
        }
      ],
      "name": "voters",
      "outputs": [
        {
          "internalType": "address",
          "name": "add",
          "type": "address"
        },
        {
          "internalType": "bool",
          "name": "hasVoted",
          "type": "bool"
        },
        {
          "internalType": "uint256",
          "name": "candidateId",
          "type": "uint256"
        }
      ],
      "payable": false,
      "stateMutability": "view",
      "type": "function"
    },
    {
      "constant": false,
      "inputs": [
        {
          "internalType": "address",
          "name": "add",
          "type": "address"
        }
      ],
      "name": "buildVoter",
      "outputs": [],
      "payable": false,
      "stateMutability": "nonpayable",
      "type": "function"
    },
    {
      "constant": false,
      "inputs": [
        {
          "internalType": "uint256",
          "name": "_candidateId",
          "type": "uint256"
        }
      ],
      "name": "vote",
      "outputs": [],
      "payable": false,
      "stateMutability": "nonpayable",
      "type": "function"
    },
    {
      "constant": false,
      "inputs": [],
      "name": "tally",
      "outputs": [],
      "payable": false,
      "stateMutability": "nonpayable",
      "type": "function"
    },
    {
      "constant": true,
      "inputs": [
        {
          "internalType": "uint256",
          "name": "candidateId",
          "type": "uint256"
        }
      ],
      "name": "getCandidateNumVotes",
      "outputs": [
        {
          "internalType": "uint256",
          "name": "",
          "type": "uint256"
        }
      ],
      "payable": false,
      "stateMutability": "view",
      "type": "function"
    },
    {
      "constant": true,
      "inputs": [
        {
          "internalType": "uint256",
          "name": "candidateId",
          "type": "uint256"
        },
        {
          "internalType": "uint256",
          "name": "index",
          "type": "uint256"
        }
      ],
      "name": "queryVotes",
      "outputs": [
        {
          "internalType": "address",
          "name": "",
          "type": "address"
        }
      ],
      "payable": false,
      "stateMutability": "view",
      "type": "function"
    }
  ],
  "bytecode": "0x60806040523480156200001157600080fd5b506200008e6040518060400160405280600581526020017f416c6963650000000000000000000000000000000000000000000000000000008152506040518060400160405280601a81526020017f4927766520676f7420796f7520696e206d79207369676874732e0000000000008152506200021860201b60201c565b6200010a6040518060400160405280600381526020017f426f6200000000000000000000000000000000000000000000000000000000008152506040518060400160405280600f81526020017f497427732068696768206e6f6f6e2e00000000000000000000000000000000008152506200021860201b60201c565b620001866040518060400160405280600781526020017f436861726c6965000000000000000000000000000000000000000000000000008152506040518060400160405280601981526020017f4a757374696365207261696e732066726f6d2061626f76652e000000000000008152506200021860201b60201c565b620002026040518060400160405280600581526020017f44616973790000000000000000000000000000000000000000000000000000008152506040518060400160405280600e81526020017f4d6574656f7220537472696b65210000000000000000000000000000000000008152506200021860201b60201c565b620002126200032460201b60201c565b62002add565b60046000815480929190600101919050555060003090506040518060a001604052806004548152602001848152602001600081526020018381526020018273ffffffffffffffffffffffffffffffffffffffff168152506000806004548152602001908152602001600020600082015181600001556020820151816001019080519060200190620002ab92919062002a2e565b50604082015181600201556060820151816003019080519060200190620002d492919062002a2e565b5060808201518160040160006101000a81548173ffffffffffffffffffffffffffffffffffffffff021916908373ffffffffffffffffffffffffffffffffffffffff160217905550905050505050565b6000736ae87b602153f81fa71c66096a03123b694ac0e490506001600260008373ffffffffffffffffffffffffffffffffffffffff1673ffffffffffffffffffffffffffffffffffffffff16815260200190815260200160002060006101000a81548160ff02191690831515021790555073ef030ce53211c33462af5e28ec4eb9782f22ba4190506001600260008373ffffffffffffffffffffffffffffffffffffffff1673ffffffffffffffffffffffffffffffffffffffff16815260200190815260200160002060006101000a81548160ff02191690831515021790555073d16544e2acbc4cb972ea989ed73021128e33813590506001600260008373ffffffffffffffffffffffffffffffffffffffff1673ffffffffffffffffffffffffffffffffffffffff16815260200190815260200160002060006101000a81548160ff021916908315150217905550732f1a0e41ba6d9e92137454a771297a27632df36690506001600260008373ffffffffffffffffffffffffffffffffffffffff1673ffffffffffffffffffffffffffffffffffffffff16815260200190815260200160002060006101000a81548160ff021916908315150217905550739105bfd7f13615b666efe174721802bb9512ec9090506001600260008373ffffffffffffffffffffffffffffffffffffffff1673ffffffffffffffffffffffffffffffffffffffff16815260200190815260200160002060006101000a81548160ff02191690831515021790555073f0d0710ba94879f255978e9eee5d56c246aedc1590506001600260008373ffffffffffffffffffffffffffffffffffffffff1673ffffffffffffffffffffffffffffffffffffffff16815260200190815260200160002060006101000a81548160ff02191690831515021790555073547fd53fa73363a966683fea9981c8e8f7b0838b90506001600260008373ffffffffffffffffffffffffffffffffffffffff1673ffffffffffffffffffffffffffffffffffffffff16815260200190815260200160002060006101000a81548160ff021916908315150217905550736f3fe9e79c8e3a4409e96d64eb2298c049c1e86790506001600260008373ffffffffffffffffffffffffffffffffffffffff1673ffffffffffffffffffffffffffffffffffffffff16815260200190815260200160002060006101000a81548160ff0219169083151502179055507347d00c0aecb819126cb700c51caf794d9581d09e90506001600260008373ffffffffffffffffffffffffffffffffffffffff1673ffffffffffffffffffffffffffffffffffffffff16815260200190815260200160002060006101000a81548160ff02191690831515021790555073e8a72e83fafa2ed57aa01eda5150e8201159fa0990506001600260008373ffffffffffffffffffffffffffffffffffffffff1673ffffffffffffffffffffffffffffffffffffffff16815260200190815260200160002060006101000a81548160ff02191690831515021790555073b7ef045bae3a3c259756a5bc15d8e92cc0b5236390506001600260008373ffffffffffffffffffffffffffffffffffffffff1673ffffffffffffffffffffffffffffffffffffffff16815260200190815260200160002060006101000a81548160ff02191690831515021790555073dd9e027e9feda75653569c52d5a2509c4d5abf0a90506001600260008373ffffffffffffffffffffffffffffffffffffffff1673ffffffffffffffffffffffffffffffffffffffff16815260200190815260200160002060006101000a81548160ff02191690831515021790555073f904a246960ee3aa72bec4ac97cb301927d9210d90506001600260008373ffffffffffffffffffffffffffffffffffffffff1673ffffffffffffffffffffffffffffffffffffffff16815260200190815260200160002060006101000a81548160ff021916908315150217905550735d18755f843b0ebc71100e8e13ae5eca014f22e690506001600260008373ffffffffffffffffffffffffffffffffffffffff1673ffffffffffffffffffffffffffffffffffffffff16815260200190815260200160002060006101000a81548160ff0219169083151502179055507316e851a324b9bc34c72bdad6e3eae7fccb844a9290506001600260008373ffffffffffffffffffffffffffffffffffffffff1673ffffffffffffffffffffffffffffffffffffffff16815260200190815260200160002060006101000a81548160ff02191690831515021790555073f2a031a0d7228158883e3d37fc9132e80672c38b90506001600260008373ffffffffffffffffffffffffffffffffffffffff1673ffffffffffffffffffffffffffffffffffffffff16815260200190815260200160002060006101000a81548160ff02191690831515021790555073126e65b236c6b1a4e20d6a5e28e57f3bd2b654cd90506001600260008373ffffffffffffffffffffffffffffffffffffffff1673ffffffffffffffffffffffffffffffffffffffff16815260200190815260200160002060006101000a81548160ff021916908315150217905550736c62efe273a095a6cda3a3fa0d8738291214378290506001600260008373ffffffffffffffffffffffffffffffffffffffff1673ffffffffffffffffffffffffffffffffffffffff16815260200190815260200160002060006101000a81548160ff021916908315150217905550738afe720d01f3047e0cb8d9b6c5c9d1f32116df5f90506001600260008373ffffffffffffffffffffffffffffffffffffffff1673ffffffffffffffffffffffffffffffffffffffff16815260200190815260200160002060006101000a81548160ff0219169083151502179055507350e179f88bd171ae636cc9b7ba897d31d50e5fb590506001600260008373ffffffffffffffffffffffffffffffffffffffff1673ffffffffffffffffffffffffffffffffffffffff16815260200190815260200160002060006101000a81548160ff02191690831515021790555073043f3873ea4ff06de4fc0b1936cb2fa0994d467490506001600260008373ffffffffffffffffffffffffffffffffffffffff1673ffffffffffffffffffffffffffffffffffffffff16815260200190815260200160002060006101000a81548160ff0219169083151502179055507359f99fc18acab13cdd1b6a540899561d338654bf90506001600260008373ffffffffffffffffffffffffffffffffffffffff1673ffffffffffffffffffffffffffffffffffffffff16815260200190815260200160002060006101000a81548160ff021916908315150217905550737bf9171c7b5ef818a1bc67bdb467f3bd5ea6ce0c90506001600260008373ffffffffffffffffffffffffffffffffffffffff1673ffffffffffffffffffffffffffffffffffffffff16815260200190815260200160002060006101000a81548160ff0219169083151502179055507314665999426d7f15e0049a747c7603e7cf49a61590506001600260008373ffffffffffffffffffffffffffffffffffffffff1673ffffffffffffffffffffffffffffffffffffffff16815260200190815260200160002060006101000a81548160ff02191690831515021790555073a736a1121bab5c20f2c1077251fe1150e9bfaf8790506001600260008373ffffffffffffffffffffffffffffffffffffffff1673ffffffffffffffffffffffffffffffffffffffff16815260200190815260200160002060006101000a81548160ff021916908315150217905550737d89d151a5d33a28ac2574808da26805abb50fc390506001600260008373ffffffffffffffffffffffffffffffffffffffff1673ffffffffffffffffffffffffffffffffffffffff16815260200190815260200160002060006101000a81548160ff02191690831515021790555073d3b642af04e0487c4cd702dede8e26adf1de534790506001600260008373ffffffffffffffffffffffffffffffffffffffff1673ffffffffffffffffffffffffffffffffffffffff16815260200190815260200160002060006101000a81548160ff02191690831515021790555073e18aa59fb84ae53f588c01ca4ed1e40a5e69ce1990506001600260008373ffffffffffffffffffffffffffffffffffffffff1673ffffffffffffffffffffffffffffffffffffffff16815260200190815260200160002060006101000a81548160ff021916908315150217905550720cd1998d3a806b71c875b160dd8417e1ac717b90506001600260008373ffffffffffffffffffffffffffffffffffffffff1673ffffffffffffffffffffffffffffffffffffffff16815260200190815260200160002060006101000a81548160ff02191690831515021790555073aa02bfd868a78a580f7e7e9c3a34dd174babd7f190506001600260008373ffffffffffffffffffffffffffffffffffffffff1673ffffffffffffffffffffffffffffffffffffffff16815260200190815260200160002060006101000a81548160ff0219169083151502179055507354eb0a374eba7314e55ee46f33f34ef832a79eb590506001600260008373ffffffffffffffffffffffffffffffffffffffff1673ffffffffffffffffffffffffffffffffffffffff16815260200190815260200160002060006101000a81548160ff021916908315150217905550734c58a58b0acf01883ee61fe79a8a0327510656ab90506001600260008373ffffffffffffffffffffffffffffffffffffffff1673ffffffffffffffffffffffffffffffffffffffff16815260200190815260200160002060006101000a81548160ff02191690831515021790555073dae50c414489b210eefe23799be8f3c85741fc5990506001600260008373ffffffffffffffffffffffffffffffffffffffff1673ffffffffffffffffffffffffffffffffffffffff16815260200190815260200160002060006101000a81548160ff0219169083151502179055507311926fa8ec87860c5df52dda2c343793b1b4715190506001600260008373ffffffffffffffffffffffffffffffffffffffff1673ffffffffffffffffffffffffffffffffffffffff16815260200190815260200160002060006101000a81548160ff02191690831515021790555073217b4518dfb9eae5abfbdb18ff2ecb14f578d20b90506001600260008373ffffffffffffffffffffffffffffffffffffffff1673ffffffffffffffffffffffffffffffffffffffff16815260200190815260200160002060006101000a81548160ff021916908315150217905550730d64319ef57297c0a083d00a105ec786bc1df20290506001600260008373ffffffffffffffffffffffffffffffffffffffff1673ffffffffffffffffffffffffffffffffffffffff16815260200190815260200160002060006101000a81548160ff021916908315150217905550733ed3dcae3b93337530961bfcad849e3168ac74c390506001600260008373ffffffffffffffffffffffffffffffffffffffff1673ffffffffffffffffffffffffffffffffffffffff16815260200190815260200160002060006101000a81548160ff02191690831515021790555073b8afac104f2c51d2abf302f4aa93c5f374c9ad0890506001600260008373ffffffffffffffffffffffffffffffffffffffff1673ffffffffffffffffffffffffffffffffffffffff16815260200190815260200160002060006101000a81548160ff0219169083151502179055507354b269306a90393b5ce24a7450d3322ea4c933c790506001600260008373ffffffffffffffffffffffffffffffffffffffff1673ffffffffffffffffffffffffffffffffffffffff16815260200190815260200160002060006101000a81548160ff021916908315150217905550736f9837ba8d8b6dfe7e0a46bc79c872079ac9404490506001600260008373ffffffffffffffffffffffffffffffffffffffff1673ffffffffffffffffffffffffffffffffffffffff16815260200190815260200160002060006101000a81548160ff02191690831515021790555073a4564b4745cc14c998e9d446362b5045fd4ee25b90506001600260008373ffffffffffffffffffffffffffffffffffffffff1673ffffffffffffffffffffffffffffffffffffffff16815260200190815260200160002060006101000a81548160ff02191690831515021790555073ab47d7dee3e8b1f74f6189aa216db2fd8344a51690506001600260008373ffffffffffffffffffffffffffffffffffffffff1673ffffffffffffffffffffffffffffffffffffffff16815260200190815260200160002060006101000a81548160ff0219169083151502179055507322af238d722f2be67a8bab6573c8c12476adfdf990506001600260008373ffffffffffffffffffffffffffffffffffffffff1673ffffffffffffffffffffffffffffffffffffffff16815260200190815260200160002060006101000a81548160ff021916908315150217905550739996e4391c47e8ba06be8e4bad3d617ac0611b2490506001600260008373ffffffffffffffffffffffffffffffffffffffff1673ffffffffffffffffffffffffffffffffffffffff16815260200190815260200160002060006101000a81548160ff0219169083151502179055507366cefad2ed7edfb66ffc68f2abf00036afb32e7990506001600260008373ffffffffffffffffffffffffffffffffffffffff1673ffffffffffffffffffffffffffffffffffffffff16815260200190815260200160002060006101000a81548160ff021916908315150217905550736fd826430164ed7da27bc7ddae5c73537915a93890506001600260008373ffffffffffffffffffffffffffffffffffffffff1673ffffffffffffffffffffffffffffffffffffffff16815260200190815260200160002060006101000a81548160ff021916908315150217905550737b19584f1047e470d0d6aa932205679b3219bfc990506001600260008373ffffffffffffffffffffffffffffffffffffffff1673ffffffffffffffffffffffffffffffffffffffff16815260200190815260200160002060006101000a81548160ff0219169083151502179055507323f9a55bf7ae8c4bc0976b8d61cae2251d56784290506001600260008373ffffffffffffffffffffffffffffffffffffffff1673ffffffffffffffffffffffffffffffffffffffff16815260200190815260200160002060006101000a81548160ff0219169083151502179055507375f46fd18785b79638fc80b9defcf895dfc55e9090506001600260008373ffffffffffffffffffffffffffffffffffffffff1673ffffffffffffffffffffffffffffffffffffffff16815260200190815260200160002060006101000a81548160ff02191690831515021790555073376dd9138ed88965f65d4b6878b8f3ef16fa81e990506001600260008373ffffffffffffffffffffffffffffffffffffffff1673ffffffffffffffffffffffffffffffffffffffff16815260200190815260200160002060006101000a81548160ff021916908315150217905550739e4d9a6e6341b42d52039bf1cbade9b504a40e4f90506001600260008373ffffffffffffffffffffffffffffffffffffffff1673ffffffffffffffffffffffffffffffffffffffff16815260200190815260200160002060006101000a81548160ff02191690831515021790555073a8a121c72e60a49fa73c1b5c62272ecfc189dbc290506001600260008373ffffffffffffffffffffffffffffffffffffffff1673ffffffffffffffffffffffffffffffffffffffff16815260200190815260200160002060006101000a81548160ff02191690831515021790555073e4c6e8c8e4c5caf75eb4de3a35f5ee0fa1cd741d90506001600260008373ffffffffffffffffffffffffffffffffffffffff1673ffffffffffffffffffffffffffffffffffffffff16815260200190815260200160002060006101000a81548160ff021916908315150217905550732d25178fac5bc9320578b889f093f2ca794a9ede90506001600260008373ffffffffffffffffffffffffffffffffffffffff1673ffffffffffffffffffffffffffffffffffffffff16815260200190815260200160002060006101000a81548160ff0219169083151502179055507324f16b8241aa3892b377bd53da6fd7cc4ef9583f90506001600260008373ffffffffffffffffffffffffffffffffffffffff1673ffffffffffffffffffffffffffffffffffffffff16815260200190815260200160002060006101000a81548160ff021916908315150217905550738e0b7c046854510a9ff6ae0ad61800f7149812e290506001600260008373ffffffffffffffffffffffffffffffffffffffff1673ffffffffffffffffffffffffffffffffffffffff16815260200190815260200160002060006101000a81548160ff021916908315150217905550730f9edf8bbf66ec6fcf81ddae1b2eefbaa7a0b14490506001600260008373ffffffffffffffffffffffffffffffffffffffff1673ffffffffffffffffffffffffffffffffffffffff16815260200190815260200160002060006101000a81548160ff02191690831515021790555073aa24edd38ad040414a7d53f3a370c1a5247a2b5290506001600260008373ffffffffffffffffffffffffffffffffffffffff1673ffffffffffffffffffffffffffffffffffffffff16815260200190815260200160002060006101000a81548160ff02191690831515021790555073bb6f3b5b43c2a59f96313e092ea7ddde0c49218090506001600260008373ffffffffffffffffffffffffffffffffffffffff1673ffffffffffffffffffffffffffffffffffffffff16815260200190815260200160002060006101000a81548160ff021916908315150217905550736c39569f534d74cbd711f5278d3d55a9afb663ea90506001600260008373ffffffffffffffffffffffffffffffffffffffff1673ffffffffffffffffffffffffffffffffffffffff16815260200190815260200160002060006101000a81548160ff021916908315150217905550737f71c256e5c98d9f5c0a8fe4f13ba09de6544d6c90506001600260008373ffffffffffffffffffffffffffffffffffffffff1673ffffffffffffffffffffffffffffffffffffffff16815260200190815260200160002060006101000a81548160ff0219169083151502179055507350a06742f9bdfde13d380b6052d22510114c9eaa90506001600260008373ffffffffffffffffffffffffffffffffffffffff1673ffffffffffffffffffffffffffffffffffffffff16815260200190815260200160002060006101000a81548160ff02191690831515021790555073c8f049937a96a119cfcc02388a3e2b0ca057ae9890506001600260008373ffffffffffffffffffffffffffffffffffffffff1673ffffffffffffffffffffffffffffffffffffffff16815260200190815260200160002060006101000a81548160ff021916908315150217905550738ca9b8245abb2de35fffa704f540e9367eae49bc90506001600260008373ffffffffffffffffffffffffffffffffffffffff1673ffffffffffffffffffffffffffffffffffffffff16815260200190815260200160002060006101000a81548160ff021916908315150217905550734f20f9b85fafe7aadf7e5710b5c1561ddac0360290506001600260008373ffffffffffffffffffffffffffffffffffffffff1673ffffffffffffffffffffffffffffffffffffffff16815260200190815260200160002060006101000a81548160ff02191690831515021790555073a4a1d6c1bb637abd0ef7026667d08bfe36fef5eb90506001600260008373ffffffffffffffffffffffffffffffffffffffff1673ffffffffffffffffffffffffffffffffffffffff16815260200190815260200160002060006101000a81548160ff02191690831515021790555073c206d72c702a94b27d37ea1c14529b7bb1ba70de90506001600260008373ffffffffffffffffffffffffffffffffffffffff1673ffffffffffffffffffffffffffffffffffffffff16815260200190815260200160002060006101000a81548160ff02191690831515021790555073e9678a3c093e81d8bc97d3bfbad019ba77c8abde90506001600260008373ffffffffffffffffffffffffffffffffffffffff1673ffffffffffffffffffffffffffffffffffffffff16815260200190815260200160002060006101000a81548160ff0219169083151502179055507317234eb55895ebcf6b89ececc58040a0b96281e590506001600260008373ffffffffffffffffffffffffffffffffffffffff1673ffffffffffffffffffffffffffffffffffffffff16815260200190815260200160002060006101000a81548160ff02191690831515021790555073e6ceaf08a8e6c7deddb3f409f339d8b50f9fce2390506001600260008373ffffffffffffffffffffffffffffffffffffffff1673ffffffffffffffffffffffffffffffffffffffff16815260200190815260200160002060006101000a81548160ff0219169083151502179055507395759e2f9fe83a7c9321bc4d0bbfd40d58ff135590506001600260008373ffffffffffffffffffffffffffffffffffffffff1673ffffffffffffffffffffffffffffffffffffffff16815260200190815260200160002060006101000a81548160ff02191690831515021790555073fc0972307b477e50eca741185363444fb488833190506001600260008373ffffffffffffffffffffffffffffffffffffffff1673ffffffffffffffffffffffffffffffffffffffff16815260200190815260200160002060006101000a81548160ff02191690831515021790555073d00cd9a524589e488c2294656bb852beb888f13c90506001600260008373ffffffffffffffffffffffffffffffffffffffff1673ffffffffffffffffffffffffffffffffffffffff16815260200190815260200160002060006101000a81548160ff02191690831515021790555073b574379eddc1e4ae27665da686235455142f567f90506001600260008373ffffffffffffffffffffffffffffffffffffffff1673ffffffffffffffffffffffffffffffffffffffff16815260200190815260200160002060006101000a81548160ff021916908315150217905550731ec225576882cdf7b46565bd79a6a0610e65533890506001600260008373ffffffffffffffffffffffffffffffffffffffff1673ffffffffffffffffffffffffffffffffffffffff16815260200190815260200160002060006101000a81548160ff021916908315150217905550738c4ef3f147a76adcbb80ac68d99fd833a755c65d90506001600260008373ffffffffffffffffffffffffffffffffffffffff1673ffffffffffffffffffffffffffffffffffffffff16815260200190815260200160002060006101000a81548160ff0219169083151502179055507306b2fdf58c8cd8503c1c707c36eb593d34f9001190506001600260008373ffffffffffffffffffffffffffffffffffffffff1673ffffffffffffffffffffffffffffffffffffffff16815260200190815260200160002060006101000a81548160ff02191690831515021790555073877293e4effd12366e7d5171391eb9e938ef54ee90506001600260008373ffffffffffffffffffffffffffffffffffffffff1673ffffffffffffffffffffffffffffffffffffffff16815260200190815260200160002060006101000a81548160ff02191690831515021790555073af23d9173c01a8fdf0b23be730ad946194ce25ae90506001600260008373ffffffffffffffffffffffffffffffffffffffff1673ffffffffffffffffffffffffffffffffffffffff16815260200190815260200160002060006101000a81548160ff021916908315150217905550737ecb35111732d1b8d1f8ba422d902581b6783a5f90506001600260008373ffffffffffffffffffffffffffffffffffffffff1673ffffffffffffffffffffffffffffffffffffffff16815260200190815260200160002060006101000a81548160ff021916908315150217905550730a5916b33996a2bd0441505ee9781b615ce3924f90506001600260008373ffffffffffffffffffffffffffffffffffffffff1673ffffffffffffffffffffffffffffffffffffffff16815260200190815260200160002060006101000a81548160ff0219169083151502179055507388dc1347ff233845ae9ae3b4e537d6de140e5a9490506001600260008373ffffffffffffffffffffffffffffffffffffffff1673ffffffffffffffffffffffffffffffffffffffff16815260200190815260200160002060006101000a81548160ff02191690831515021790555073c13cb55e57eb107f1aa4658c3b2f52d7bf34b87690506001600260008373ffffffffffffffffffffffffffffffffffffffff1673ffffffffffffffffffffffffffffffffffffffff16815260200190815260200160002060006101000a81548160ff02191690831515021790555073f5531e9c45f903f381479cb849509e2ec591e1f390506001600260008373ffffffffffffffffffffffffffffffffffffffff1673ffffffffffffffffffffffffffffffffffffffff16815260200190815260200160002060006101000a81548160ff021916908315150217905550734b53e89378a7c239d80e7451ea784f92572982d090506001600260008373ffffffffffffffffffffffffffffffffffffffff1673ffffffffffffffffffffffffffffffffffffffff16815260200190815260200160002060006101000a81548160ff021916908315150217905550733bc1643e3747b2b8f313987cff922dbb4c3a0f8e90506001600260008373ffffffffffffffffffffffffffffffffffffffff1673ffffffffffffffffffffffffffffffffffffffff16815260200190815260200160002060006101000a81548160ff0219169083151502179055507301f3b898640db2bcc4fb84a407291c6f60d4edaf90506001600260008373ffffffffffffffffffffffffffffffffffffffff1673ffffffffffffffffffffffffffffffffffffffff16815260200190815260200160002060006101000a81548160ff02191690831515021790555073e736c13d6c07a08bc145a20f662b808885f0cae290506001600260008373ffffffffffffffffffffffffffffffffffffffff1673ffffffffffffffffffffffffffffffffffffffff16815260200190815260200160002060006101000a81548160ff02191690831515021790555073f31ff3d0880421aaea60eb14e9668f9fea6e74c390506001600260008373ffffffffffffffffffffffffffffffffffffffff1673ffffffffffffffffffffffffffffffffffffffff16815260200190815260200160002060006101000a81548160ff021916908315150217905550731f41babb0815dbe41cd2a3ec2033a80839e0428690506001600260008373ffffffffffffffffffffffffffffffffffffffff1673ffffffffffffffffffffffffffffffffffffffff16815260200190815260200160002060006101000a81548160ff02191690831515021790555050565b828054600181600116156101000203166002900490600052602060002090601f016020900481019282601f1062002a7157805160ff191683800117855562002aa2565b8280016001018555821562002aa2579182015b8281111562002aa157825182559160200191906001019062002a84565b5b50905062002ab1919062002ab5565b5090565b62002ada91905b8082111562002ad657600081600090555060010162002abc565b5090565b90565b610f258062002aed6000396000f3fe608060405234801561001057600080fd5b50600436106100a95760003560e01c80633b7cc50d116100715780633b7cc50d146102f3578063410673e5146103375780634324970b146103415780636d55f8fd1461035f578063a3ec138d146103a1578063b3ce331e14610437576100a9565b80630121b93f146100ae57806311e28860146100dc5780632d35a8a21461013857806334461067146101565780633477ee2e1461019f575b600080fd5b6100da600480360360208110156100c457600080fd5b81019080803590602001909291905050506104af565b005b61011e600480360360208110156100f257600080fd5b81019080803573ffffffffffffffffffffffffffffffffffffffff16906020019092919050505061085d565b604051808215151515815260200191505060405180910390f35b61014061087d565b6040518082815260200191505060405180910390f35b6101826004803603602081101561016c57600080fd5b8101908080359060200190929190505050610883565b604051808381526020018281526020019250505060405180910390f35b6101cb600480360360208110156101b557600080fd5b81019080803590602001909291905050506108a7565b6040518086815260200180602001858152602001806020018473ffffffffffffffffffffffffffffffffffffffff1673ffffffffffffffffffffffffffffffffffffffff168152602001838103835287818151815260200191508051906020019080838360005b8381101561024d578082015181840152602081019050610232565b50505050905090810190601f16801561027a5780820380516001836020036101000a031916815260200191505b50838103825285818151815260200191508051906020019080838360005b838110156102b3578082015181840152602081019050610298565b50505050905090810190601f1680156102e05780820380516001836020036101000a031916815260200191505b5097505050505050505060405180910390f35b6103356004803603602081101561030957600080fd5b81019080803573ffffffffffffffffffffffffffffffffffffffff169060200190929190505050610a2d565b005b61033f610bb2565b005b610349610dd7565b6040518082815260200191505060405180910390f35b61038b6004803603602081101561037557600080fd5b8101908080359060200190929190505050610ddd565b6040518082815260200191505060405180910390f35b6103e3600480360360208110156103b757600080fd5b81019080803573ffffffffffffffffffffffffffffffffffffffff169060200190929190505050610dfd565b604051808473ffffffffffffffffffffffffffffffffffffffff1673ffffffffffffffffffffffffffffffffffffffff16815260200183151515158152602001828152602001935050505060405180910390f35b61046d6004803603604081101561044d57600080fd5b810190808035906020019092919080359060200190929190505050610e54565b604051808273ffffffffffffffffffffffffffffffffffffffff1673ffffffffffffffffffffffffffffffffffffffff16815260200191505060405180910390f35b6000339050600160008273ffffffffffffffffffffffffffffffffffffffff1673ffffffffffffffffffffffffffffffffffffffff16815260200190815260200160002060000160149054906101000a900460ff1615610577576040517f08c379a000000000000000000000000000000000000000000000000000000000815260040180806020018281038252600e8152602001807f796f75206861766520766f74656400000000000000000000000000000000000081525060200191505060405180910390fd5b600260008273ffffffffffffffffffffffffffffffffffffffff1673ffffffffffffffffffffffffffffffffffffffff16815260200190815260200160002060009054906101000a900460ff16610636576040517f08c379a000000000000000000000000000000000000000000000000000000000815260040180806020018281038252600f8152602001807f6e6f742076616c696420766f746572000000000000000000000000000000000081525060200191505060405180910390fd5b60008211801561064857506004548211155b6106ba576040517f08c379a00000000000000000000000000000000000000000000000000000000081526004018080602001828103825260118152602001807f696e76616c69642063616e64696461746500000000000000000000000000000081525060200191505060405180910390fd5b6000808381526020019081526020016000206002016000815480929190600101919050555060018060008373ffffffffffffffffffffffffffffffffffffffff1673ffffffffffffffffffffffffffffffffffffffff16815260200190815260200160002060000160146101000a81548160ff02191690831515021790555081600160008373ffffffffffffffffffffffffffffffffffffffff1673ffffffffffffffffffffffffffffffffffffffff16815260200190815260200160002060010181905550600660405180604001604052808373ffffffffffffffffffffffffffffffffffffffff168152602001848152509080600181540180825580915050906001820390600052602060002090600202016000909192909190915060008201518160000160006101000a81548173ffffffffffffffffffffffffffffffffffffffff021916908373ffffffffffffffffffffffffffffffffffffffff16021790555060208201518160010155505050817ffff3c900d938d21d0990d786e819f29b8d05c1ef587b462b939609625b684b1660405160405180910390a25050565b60026020528060005260406000206000915054906101000a900460ff1681565b60045481565b60036020528060005260406000206000915090508060000154908060020154905082565b6000602052806000526040600020600091509050806000015490806001018054600181600116156101000203166002900480601f0160208091040260200160405190810160405280929190818152602001828054600181600116156101000203166002900480156109595780601f1061092e57610100808354040283529160200191610959565b820191906000526020600020905b81548152906001019060200180831161093c57829003601f168201915b505050505090806002015490806003018054600181600116156101000203166002900480601f0160208091040260200160405190810160405280929190818152602001828054600181600116156101000203166002900480156109fd5780601f106109d2576101008083540402835291602001916109fd565b820191906000526020600020905b8154815290600101906020018083116109e057829003601f168201915b5050505050908060040160009054906101000a900473ffffffffffffffffffffffffffffffffffffffff16905085565b600073ffffffffffffffffffffffffffffffffffffffff16600160008373ffffffffffffffffffffffffffffffffffffffff1673ffffffffffffffffffffffffffffffffffffffff16815260200190815260200160002060000160009054906101000a900473ffffffffffffffffffffffffffffffffffffffff1673ffffffffffffffffffffffffffffffffffffffff161415610baf5760405180606001604052808273ffffffffffffffffffffffffffffffffffffffff168152602001600015158152602001620186a0815250600160008373ffffffffffffffffffffffffffffffffffffffff1673ffffffffffffffffffffffffffffffffffffffff16815260200190815260200160002060008201518160000160006101000a81548173ffffffffffffffffffffffffffffffffffffffff021916908373ffffffffffffffffffffffffffffffffffffffff16021790555060208201518160000160146101000a81548160ff021916908315150217905550604082015181600101559050505b50565b6000600190505b6004548111610c055760036000828152602001908152602001600020600080820160009055600182016000610bee9190610eaa565b600282016000905550508080600101915050610bb9565b5060008090505b600680549050811015610dd4576002600060068381548110610c2a57fe5b906000526020600020906002020160000160009054906101000a900473ffffffffffffffffffffffffffffffffffffffff1673ffffffffffffffffffffffffffffffffffffffff1673ffffffffffffffffffffffffffffffffffffffff16815260200190815260200160002060009054906101000a900460ff16610cad57610dc7565b60016003600060068481548110610cc057fe5b9060005260206000209060020201600101548152602001908152602001600020600201600082825401925050819055506003600060068381548110610d0157fe5b906000526020600020906002020160010154815260200190815260200160002060010160068281548110610d3157fe5b906000526020600020906002020160000160009054906101000a900473ffffffffffffffffffffffffffffffffffffffff1690806001815401808255809150509060018203906000526020600020016000909192909190916101000a81548173ffffffffffffffffffffffffffffffffffffffff021916908373ffffffffffffffffffffffffffffffffffffffff160217905550505b8080600101915050610c0c565b50565b60055481565b600060036000838152602001908152602001600020600201549050919050565b60016020528060005260406000206000915090508060000160009054906101000a900473ffffffffffffffffffffffffffffffffffffffff16908060000160149054906101000a900460ff16908060010154905083565b6000600360008481526020019081526020016000206001018281548110610e7757fe5b9060005260206000200160009054906101000a900473ffffffffffffffffffffffffffffffffffffffff16905092915050565b5080546000825590600052602060002090810190610ec89190610ecb565b50565b610eed91905b80821115610ee9576000816000905550600101610ed1565b5090565b9056fea265627a7a72315820c38411b142a3652a1bdf97c85d949b679bda8fb8a304e5d1b1e8e6f1ed4c4ed664736f6c63430005100032",
  "source": "pragma solidity ^0.5.16;\r\n\r\n\r\ncontract Election {\r\n    // store the candidates\r\n    // provide reading and writing\r\n\r\n    // model a candidate\r\n    struct Candidate {\r\n        // unsigned integer\r\n        uint256 id;\r\n        string name;\r\n        uint256 voteCount;\r\n        string content;\r\n        address add;\r\n    }\r\n\r\n    struct Voter {\r\n        address add;\r\n        bool hasVoted;\r\n        uint256 candidateId;\r\n    }\r\n\r\n    struct Vote {\r\n        address voter;\r\n        uint256 candidateId;\r\n    }\r\n\r\n    struct Record {\r\n        uint256 candidate;\r\n        address[] voters;\r\n        uint256 count;\r\n    }\r\n\r\n    // key => value to store the candidates\r\n    mapping(uint256 => Candidate) public candidates;\r\n\r\n    // Store accounts that have voted\r\n    mapping(address => Voter) public voters;\r\n    mapping(address => bool) public validVoters;\r\n\r\n    mapping(uint256 => Record) public records;\r\n\r\n    // to count the number, since mapping has no function of counting\r\n    // brutely\r\n    uint256 public candidatesCount;\r\n    uint256 public validVotersCount;\r\n\r\n    Vote[] votes;\r\n\r\n    // Record[] public result;\r\n\r\n    // constraint the range of candidates\r\n    constructor() public {\r\n        addCandidate(\"Alice\", \"I've got you in my sights.\");\r\n        addCandidate(\"Bob\", \"It's high noon.\");\r\n        addCandidate(\"Charlie\", \"Justice rains from above.\");\r\n        addCandidate(\"Daisy\", \"Meteor Strike!\");\r\n\r\n        buildValidVoters();\r\n    }\r\n\r\n    function buildValidVoters() private {\r\n        address add = address(0x6Ae87b602153F81FA71c66096a03123b694Ac0e4);\r\n        validVoters[add] = true;\r\n        add = address(0xEF030ce53211c33462af5e28Ec4eb9782F22bA41);\r\n        validVoters[add] = true;\r\n        add = address(0xd16544E2ACbc4cB972EA989ED73021128E338135);\r\n        validVoters[add] = true;\r\n        add = address(0x2f1A0e41Ba6D9E92137454A771297a27632DF366);\r\n        validVoters[add] = true;\r\n        add = address(0x9105bfD7F13615b666eFe174721802bB9512EC90);\r\n        validVoters[add] = true;\r\n        add = address(0xf0d0710bA94879F255978E9EEe5d56c246aeDC15);\r\n        validVoters[add] = true;\r\n        add = address(0x547fD53fa73363A966683FEA9981C8E8F7b0838b);\r\n        validVoters[add] = true;\r\n        add = address(0x6F3fE9e79c8E3A4409E96d64EB2298c049C1E867);\r\n        validVoters[add] = true;\r\n        add = address(0x47D00C0aEcB819126cB700C51CaF794D9581d09E);\r\n        validVoters[add] = true;\r\n        add = address(0xe8A72e83FAFA2ED57aA01Eda5150E8201159fa09);\r\n        validVoters[add] = true;\r\n        add = address(0xb7ef045baE3a3c259756A5bC15d8e92cC0b52363);\r\n        validVoters[add] = true;\r\n        add = address(0xDD9E027E9FeDa75653569c52D5A2509C4d5ABF0a);\r\n        validVoters[add] = true;\r\n        add = address(0xf904a246960Ee3AA72BEc4ac97Cb301927d9210d);\r\n        validVoters[add] = true;\r\n        add = address(0x5d18755f843B0EBc71100E8E13AE5ECA014f22e6);\r\n        validVoters[add] = true;\r\n        add = address(0x16e851A324B9bC34C72Bdad6E3eAe7fccb844a92);\r\n        validVoters[add] = true;\r\n        add = address(0xF2a031A0D7228158883e3D37fC9132E80672c38b);\r\n        validVoters[add] = true;\r\n        add = address(0x126E65B236C6B1A4e20d6a5e28e57F3BD2B654CD);\r\n        validVoters[add] = true;\r\n        add = address(0x6C62EFE273a095a6Cda3a3FA0D87382912143782);\r\n        validVoters[add] = true;\r\n        add = address(0x8aFe720d01F3047e0CB8d9B6c5C9d1f32116df5f);\r\n        validVoters[add] = true;\r\n        add = address(0x50E179f88bd171Ae636cC9b7Ba897D31d50e5FB5);\r\n        validVoters[add] = true;\r\n        add = address(0x043F3873eA4fF06de4fC0B1936CB2fA0994D4674);\r\n        validVoters[add] = true;\r\n        add = address(0x59f99fC18AcAb13cdD1B6A540899561D338654Bf);\r\n        validVoters[add] = true;\r\n        add = address(0x7BF9171c7B5ef818a1bC67bdb467F3bD5ea6cE0C);\r\n        validVoters[add] = true;\r\n        add = address(0x14665999426D7f15e0049a747C7603E7cF49A615);\r\n        validVoters[add] = true;\r\n        add = address(0xa736a1121bab5C20F2C1077251Fe1150e9BFaF87);\r\n        validVoters[add] = true;\r\n        add = address(0x7D89D151A5D33A28Ac2574808da26805AbB50fC3);\r\n        validVoters[add] = true;\r\n        add = address(0xD3b642AF04e0487c4cd702DEDe8e26aDf1DE5347);\r\n        validVoters[add] = true;\r\n        add = address(0xE18Aa59fb84ae53F588c01Ca4ed1E40A5e69Ce19);\r\n        validVoters[add] = true;\r\n        add = address(0x000Cd1998D3a806b71C875B160DD8417E1Ac717B);\r\n        validVoters[add] = true;\r\n        add = address(0xaA02BFd868A78a580F7E7E9C3A34dd174babd7F1);\r\n        validVoters[add] = true;\r\n        add = address(0x54eB0A374eba7314e55eE46f33F34EF832a79eb5);\r\n        validVoters[add] = true;\r\n        add = address(0x4c58a58B0aCF01883Ee61fe79a8A0327510656aB);\r\n        validVoters[add] = true;\r\n        add = address(0xdaE50C414489B210EEFE23799Be8F3C85741FC59);\r\n        validVoters[add] = true;\r\n        add = address(0x11926fA8ec87860c5Df52ddA2C343793b1b47151);\r\n        validVoters[add] = true;\r\n        add = address(0x217b4518dfB9EAE5aBFbDb18fF2ecb14F578D20b);\r\n        validVoters[add] = true;\r\n        add = address(0x0d64319Ef57297C0a083d00A105EC786bc1dF202);\r\n        validVoters[add] = true;\r\n        add = address(0x3ed3DCaE3b93337530961bfCaD849e3168Ac74C3);\r\n        validVoters[add] = true;\r\n        add = address(0xb8AFac104F2C51D2aBf302F4Aa93C5F374c9Ad08);\r\n        validVoters[add] = true;\r\n        add = address(0x54B269306A90393b5Ce24A7450d3322EA4c933C7);\r\n        validVoters[add] = true;\r\n        add = address(0x6f9837bA8D8b6Dfe7E0A46BC79c872079Ac94044);\r\n        validVoters[add] = true;\r\n        add = address(0xa4564b4745CC14C998e9d446362b5045fd4ee25B);\r\n        validVoters[add] = true;\r\n        add = address(0xaB47d7DeE3E8b1f74F6189AA216dB2fd8344a516);\r\n        validVoters[add] = true;\r\n        add = address(0x22Af238d722f2bE67a8BAb6573C8C12476aDfDF9);\r\n        validVoters[add] = true;\r\n        add = address(0x9996E4391c47e8Ba06bE8e4baD3d617AC0611B24);\r\n        validVoters[add] = true;\r\n        add = address(0x66cefad2eD7EdfB66FFC68f2abf00036afb32E79);\r\n        validVoters[add] = true;\r\n        add = address(0x6FD826430164eD7Da27BC7DdaE5C73537915a938);\r\n        validVoters[add] = true;\r\n        add = address(0x7B19584F1047E470D0D6AA932205679b3219bfC9);\r\n        validVoters[add] = true;\r\n        add = address(0x23f9A55BF7Ae8c4bc0976b8D61cae2251d567842);\r\n        validVoters[add] = true;\r\n        add = address(0x75F46fD18785b79638fC80B9defcF895dFC55e90);\r\n        validVoters[add] = true;\r\n        add = address(0x376DD9138Ed88965F65d4b6878B8F3ef16Fa81e9);\r\n        validVoters[add] = true;\r\n        add = address(0x9E4D9A6e6341b42D52039bf1cbade9B504A40E4F);\r\n        validVoters[add] = true;\r\n        add = address(0xa8a121c72e60A49fa73C1B5c62272ECFC189DBC2);\r\n        validVoters[add] = true;\r\n        add = address(0xe4C6E8C8e4c5CAf75eB4de3A35F5eE0fA1cd741D);\r\n        validVoters[add] = true;\r\n        add = address(0x2d25178fac5bc9320578b889f093f2Ca794a9edE);\r\n        validVoters[add] = true;\r\n        add = address(0x24f16B8241aA3892B377BD53DA6Fd7CC4EF9583F);\r\n        validVoters[add] = true;\r\n        add = address(0x8E0B7c046854510A9FF6ae0ad61800f7149812E2);\r\n        validVoters[add] = true;\r\n        add = address(0x0f9EdF8BbF66eC6fCf81ddae1b2EeFBaa7A0B144);\r\n        validVoters[add] = true;\r\n        add = address(0xAA24EdD38AD040414A7d53f3a370c1A5247A2b52);\r\n        validVoters[add] = true;\r\n        add = address(0xbb6F3B5b43c2a59f96313e092eA7dDDE0C492180);\r\n        validVoters[add] = true;\r\n        add = address(0x6c39569F534d74CBD711f5278d3d55A9afB663eA);\r\n        validVoters[add] = true;\r\n        add = address(0x7F71C256E5c98D9F5C0a8fe4F13Ba09DE6544D6C);\r\n        validVoters[add] = true;\r\n        add = address(0x50a06742f9bdfde13d380b6052D22510114c9eAa);\r\n        validVoters[add] = true;\r\n        add = address(0xC8f049937A96a119cFCC02388a3e2B0Ca057AE98);\r\n        validVoters[add] = true;\r\n        add = address(0x8cA9b8245Abb2De35ffFa704f540E9367eAe49Bc);\r\n        validVoters[add] = true;\r\n        add = address(0x4F20f9B85faFE7AaDF7e5710B5C1561DdaC03602);\r\n        validVoters[add] = true;\r\n        add = address(0xa4a1D6c1bB637abD0ef7026667D08bFe36fef5eB);\r\n        validVoters[add] = true;\r\n        add = address(0xc206d72c702A94b27D37eA1c14529B7BB1Ba70de);\r\n        validVoters[add] = true;\r\n        add = address(0xE9678A3c093e81D8bC97D3BFbAd019ba77C8ABDE);\r\n        validVoters[add] = true;\r\n        add = address(0x17234eb55895ebcF6B89ececC58040A0B96281e5);\r\n        validVoters[add] = true;\r\n        add = address(0xE6CeAf08A8E6c7DeDDb3f409f339d8b50F9FCE23);\r\n        validVoters[add] = true;\r\n        add = address(0x95759E2f9Fe83a7c9321Bc4D0bbFd40d58FF1355);\r\n        validVoters[add] = true;\r\n        add = address(0xfc0972307b477E50ECA741185363444Fb4888331);\r\n        validVoters[add] = true;\r\n        add = address(0xd00Cd9A524589E488c2294656bb852bEB888F13C);\r\n        validVoters[add] = true;\r\n        add = address(0xb574379EdDC1e4Ae27665da686235455142f567F);\r\n        validVoters[add] = true;\r\n        add = address(0x1ec225576882cDf7b46565BD79a6a0610E655338);\r\n        validVoters[add] = true;\r\n        add = address(0x8c4eF3f147A76AdCbB80AC68D99Fd833A755C65D);\r\n        validVoters[add] = true;\r\n        add = address(0x06B2fDf58C8cD8503C1C707c36eB593D34f90011);\r\n        validVoters[add] = true;\r\n        add = address(0x877293e4efFd12366e7d5171391Eb9e938Ef54eE);\r\n        validVoters[add] = true;\r\n        add = address(0xAf23D9173C01A8fDf0b23Be730AD946194cE25ae);\r\n        validVoters[add] = true;\r\n        add = address(0x7ecB35111732d1b8D1F8bA422D902581b6783a5F);\r\n        validVoters[add] = true;\r\n        add = address(0x0a5916b33996a2BD0441505eE9781b615cE3924f);\r\n        validVoters[add] = true;\r\n        add = address(0x88DC1347Ff233845Ae9aE3B4e537D6De140e5a94);\r\n        validVoters[add] = true;\r\n        add = address(0xC13cB55E57eb107f1aA4658C3b2f52D7Bf34B876);\r\n        validVoters[add] = true;\r\n        add = address(0xf5531e9C45F903f381479cB849509e2EC591E1F3);\r\n        validVoters[add] = true;\r\n        add = address(0x4b53e89378A7C239D80e7451Ea784f92572982d0);\r\n        validVoters[add] = true;\r\n        add = address(0x3BC1643E3747b2b8F313987Cff922dbB4C3A0f8e);\r\n        validVoters[add] = true;\r\n        add = address(0x01f3b898640db2BCC4FB84A407291c6F60D4EDaf);\r\n        validVoters[add] = true;\r\n        add = address(0xe736c13d6C07a08bc145A20F662b808885F0caE2);\r\n        validVoters[add] = true;\r\n        add = address(0xf31fF3d0880421aaea60eB14e9668f9Fea6E74C3);\r\n        validVoters[add] = true;\r\n        add = address(0x1f41BaBb0815dbe41cd2a3ec2033a80839e04286);\r\n        validVoters[add] = true;\r\n\r\n        // address add = address(0x6Ae87b602153F81FA71c66096a03123b694Ac0e4);\r\n        // validVoters[add] = true;\r\n        // add = address(0xEF030ce53211c33462af5e28Ec4eb9782F22bA41);\r\n        // validVoters[add] = true;\r\n    }\r\n\r\n    function buildVoter(address add) public {\r\n        if (voters[add].add == address(0))\r\n            voters[add] = Voter(add, false, 100000);\r\n    }\r\n\r\n    // here memory is mandatory to tell the location of the parameter\r\n    function addCandidate(string memory _name, string memory _content) private {\r\n        candidatesCount++;\r\n        address add = address(this);\r\n        candidates[candidatesCount] = Candidate(\r\n            candidatesCount,\r\n            _name,\r\n            0,\r\n            _content,\r\n            add\r\n        );\r\n    }\r\n\r\n    // voted event\r\n    event votedEvent(uint256 indexed _candidateId);\r\n\r\n    function vote(uint256 _candidateId) public {\r\n        address voter = msg.sender;\r\n        // check if the voter has voted\r\n        require(!voters[voter].hasVoted, \"you have voted\");\r\n        require(validVoters[voter], \"not valid voter\");\r\n\r\n        // // check if the candidate is valid\r\n        require(\r\n            _candidateId > 0 && _candidateId <= candidatesCount,\r\n            \"invalid candidate\"\r\n        );\r\n\r\n        // vote for a candidate and update its count\r\n        candidates[_candidateId].voteCount++;\r\n\r\n        // record the voter has votes\r\n        // how to know who's voter??? why should we know?\r\n        // however this is the voter\r\n        voters[voter].hasVoted = true;\r\n        voters[voter].candidateId = _candidateId;\r\n\r\n        votes.push(Vote(voter, _candidateId));\r\n\r\n        // trigger voted event\r\n        emit votedEvent(_candidateId);\r\n    }\r\n\r\n    function tally() public {\r\n        // clear clear clear\r\n        for (uint256 i = 1; i <= candidatesCount; i++) {\r\n            delete records[i];\r\n        }\r\n\r\n        for (uint256 i = 0; i < votes.length; i++) {\r\n            if (!validVoters[votes[i].voter]) continue;\r\n            records[votes[i].candidateId].count += 1;\r\n            records[votes[i].candidateId].voters.push(votes[i].voter);\r\n        }\r\n    }\r\n\r\n    /* a very detoured way\r\n     * solidity doesn't support returning an array of struct\r\n     * so this is a very brute way to return all the valid votes:\r\n     * we give a getter of how many votes each candidate gather,\r\n     * then we return to tally server one by one.\r\n     */\r\n    function getCandidateNumVotes(uint256 candidateId)\r\n        public\r\n        view\r\n        returns (uint256)\r\n    {\r\n        return records[candidateId].count;\r\n    }\r\n\r\n    function queryVotes(uint256 candidateId, uint256 index)\r\n        public\r\n        view\r\n        returns (address)\r\n    {\r\n        return records[candidateId].voters[index];\r\n    }\r\n}\r\n",
  "sourcePath": "D:\\NodePrograms\\e-voting\\contracts\\Election.sol",
  "compiler": {
    "name": "solc",
    "version": "0.5.16+commit.9c3226ce.Emscripten.clang"
  },
  "schemaVersion": "3.0.23",
  "updatedAt": "2020-04-14T00:31:32.605Z",
  "networkType": "ethereum",
  "devdoc": {
    "methods": {}
  },
  "userdoc": {
    "methods": {}
  }
}